:020000040000fa
:080000000001040000000000f3
:020000040000fa
:0400080044020000ae
:020000040000fa
:04000c0044020000aa
:020000040000fa
:0400100044020000a6
:020000040000fa
:0400140044020000a2
:020000040000fa
:04001800440200009e
:020000040000fa
:04001c00440200009a
:020000040000fa
:040020004402000096
:020000040000fa
:040024004402000092
:020000040000fa
:04002800440200008e
:020000040000fa
:04002c00440200008a
:020000040000fa
:040030004402000086
:020000040000fa
:040034000c020000ba
:020000040000fa
:04003800440200007e
:020000040000fa
:04003c00440200007a
:020000040000fa
:040040004402000076
:020000040000fa
:040044004402000072
:020000040000fa
:04004800440200006e
:020000040000fa
:04004c00440200006a
:020000040000fa
:040050004402000066
:020000040000fa
:040054004402000062
:020000040000fa
:04005800440200005e
:020000040000fa
:04005c00440200005a
:020000040000fa
:040060004402000056
:020000040000fa
:040064004402000052
:020000040000fa
:04006800440200004e
:020000040000fa
:04006c00440200004a
:020000040000fa
:040070004402000046
:020000040000fa
:040074004402000042
:020000040000fa
:04007800440200003e
:020000040000fa
:04007c00440200003a
:020000040000fa
:040080004402000036
:020000040000fa
:040084004402000032
:020000040000fa
:04008800440200002e
:020000040000fa
:04008c00440200002a
:020000040000fa
:040090004402000026
:020000040000fa
:040094004402000022
:020000040000fa
:04009800440200001e
:020000040000fa
:04009c00440200001a
:020000040000fa
:0400a0004402000016
:020000040000fa
:0400a4004402000012
:020000040000fa
:0400a800440200000e
:020000040000fa
:0400ac00440200000a
:020000040000fa
:0400b0004402000006
:020000040000fa
:0400b4004402000002
:020000040000fa
:0400b80044020000fe
:020000040000fa
:0400bc0044020000fa
:020000040000fa
:0400c00044020000f6
:020000040000fa
:0400c40044020000f2
:020000040000fa
:0400c80044020000ee
:020000040000fa
:0400cc0044020000ea
:020000040000fa
:0400d00044020000e6
:020000040000fa
:0400d40044020000e2
:020000040000fa
:0400d80044020000de
:020000040000fa
:0400dc0044020000da
:020000040000fa
:0400e00044020000d6
:020000040000fa
:0400e40044020000d2
:020000040000fa
:0400e80044020000ce
:020000040000fa
:0400ec0044020000ca
:020000040000fa
:0400f00044020000c6
:020000040000fa
:0400f40044020000c2
:020000040000fa
:0400f80044020000be
:020000040000fa
:0400fc0044020000ba
:020000040000fa
:0401000044020000b5
:020000040000fa
:0401040044020000b1
:020000040000fa
:0401080044020000ad
:020000040000fa
:04010c0044020000a9
:020000040000fa
:0401100044020000a5
:020000040000fa
:0401140044020000a1
:020000040000fa
:04011800440200009d
:020000040000fa
:04011c004402000099
:020000040000fa
:040120004402000095
:020000040000fa
:040124004402000091
:020000040000fa
:04012800440200008d
:020000040000fa
:04012c004402000089
:020000040000fa
:040130004402000085
:020000040000fa
:040134004402000081
:020000040000fa
:04013800440200007d
:020000040000fa
:04013c004402000079
:020000040000fa
:040140004402000075
:020000040000fa
:040144004402000071
:020000040000fa
:04014800440200006d
:020000040000fa
:04014c004402000069
:020000040000fa
:040150004402000065
:020000040000fa
:040154004402000061
:020000040000fa
:04015800440200005d
:020000040000fa
:04015c004402000059
:020000040000fa
:040160004402000055
:020000040000fa
:040164004402000051
:020000040000fa
:04016800440200004d
:020000040000fa
:04016c004402000049
:020000040000fa
:040170004402000045
:020000040000fa
:040174004402000041
:020000040000fa
:04017800440200003d
:020000040000fa
:04017c004402000039
:020000040000fa
:040180004402000035
:020000040000fa
:040184004402000031
:020000040000fa
:04018800440200002d
:020000040000fa
:04018c004402000029
:020000040000fa
:040190004402000025
:020000040000fa
:040194004402000021
:020000040000fa
:04019800440200001d
:020000040000fa
:04019c004402000019
:020000040000fa
:0401a0004402000015
:020000040000fa
:0401a4004402000011
:020000040000fa
:0401a800440200000d
:020000040000fa
:0401ac004402000009
:020000040000fa
:0401b0004402000005
:020000040000fa
:0401b4004402000001
:020000040000fa
:0401b80044020000fd
:020000040000fa
:0401bc0044020000f9
:020000040000fa
:0401c00044020000f5
:020000040000fa
:0401c40044020000f1
:020000040000fa
:0401c80044020000ed
:020000040000fa
:0401cc0044020000e9
:020000040000fa
:0401d00044020000e5
:020000040000fa
:0401d40044020000e1
:020000040000fa
:0401d80044020000dd
:020000040000fa
:0401dc0044020000d9
:020000040000fa
:0401e00044020000d5
:020000040000fa
:0401e40044020000d1
:020000040000fa
:0401e80044020000cd
:020000040000fa
:0401ec0044020000c9
:020000040000fa
:0401f00044020000c5
:020000040000fa
:0401f40044020000c1
:020000040000fa
:0401f80044020000bd
:020000040000fa
:0401fc0044020000b9
:020000040000fa
:10020000af0f22000eff27000e0188000000000043
:10021000000020000000e000020032000001200089
:100220002002880014000700990007000000e00089
:1002300003003a00c00a2500010020000200370038
:100240000000200001002000810f7000010032003a
:1002500014000700000020000000e000020032004f
:100260000000020000000000b44a0200000000008c
:100270000040da000000fe004440a900c00c20004d
:100280000000e00003003200002020009001880000
:100290004440a800000006008a1f78008b1f7800e9
:1002a00000000600a1028800800478000000eb0036
:1002b0001f003700e284440054a0b4009905ba003e
:1002c000e284440054a0b4009906ba00e2844400d9
:1002d00054a0b4000006eb00476fde00fd07b2003b
:1002e000ae018800636ce10003003a00eaff0700fa
:1002f0000000eb000e003700606ce10008003a00df
:10030000004deb000a05e800020039003420ec0043
:100310000af0a0008b05e900f9ff3e000400370059
:100320006168e100010032000086eb000b0007006d
:1003300019c7ba001905ba000e04e00003003a001c
:100340000a00e000dbff3a0000000600fe07b200f2
:10035000ae0288008a047800f5ff37000cd0a300b5
:10036000e20f4d001c00390089027800354dba00bb
:100370000a05e800020039003420ec000af0a00071
:100380008b05e9000f003200254dba000a05e80090
:10039000020039003420ec000af0a0008b05e900cf
:1003a000080032000c00e0000600320015cdba0053
:1003b0000a05e800020039003420ec000af0a00031
:1003c0008b05e9008984e80054a0b4000b00e0002c
:1003d000e2ff3a00000006009902ba00055d7800cd
:1003e0008b05e900f7ff3200c82ade00055d7800c2
:1003f0008b05e900f3ff32000c00e000f1ff320052
:1004000019ddba00eeff3700464804000000000086
:1004100018190400000000003600f800809fbe009c
:10042000829fbe00849fbe00869fbe003200f800ff
:100430003400f80010002000a001880000202000f7
:10044000900188000000fa008860a900ea0807000f
:100450000000e000030032005850020000000000dd
:10046000000000000080fa003400f9003200f900ba
:100470004f03be004f02be004f01be004f00be0042
:100480003600f900004006000040da000000fe00df
:10049000000005000001be001b0007000470a7005b
:1004a00003f0a10003f8a30013003a006509b100ae
:1004b00010003200090035006928e1000200350013
:1004c0000100280000000500000040008180480075
:1004d0008502e900fcff3a0000000600f88f4200a8
:1004e000050035008100d1000080d3008502e800be
:1004f000fcff3a00000006008000eb000000050051
:100500006011b80094013700c70ade00f107b2009d
:10051000f50fb20008003200e1cf420002003200c5
:100520000170a00024000500810f7000010032005e
:100530000408050044000500810f700002003a0025
:10054000140005008502e9000000400081c0480059
:10055000fcff3b000170a00024000500889fbe0046
:100560008a9fbe008c9fbe001b0020000202be00be
:100570000586680006002800060666004709de00ba
:10058000f20fb200820032000243e8008000320025
:10059000c729de00f30fb2007d0032000343e800fc
:1005a0007b003200f107b2000170a000f507b20035
:1005b0000570a000c708dd004903de0086807000da
:1005c0004700dd00c72add004923de008682720075
:1005d0004722dd00030551000403500085835800c5
:1005e0000300310000004000818048000a05e90056
:1005f0008c1f78008a9fbe00040050008580580040
:100600000402420085824a000000400081804800c8
:100610000005eb000004be006033b8000406be0015
:100620000d48e10056003100110009004dccd80002
:100630000c01b8000d02b8008481410060824a00bc
:100640008283530003045c0084845c0060055d00c9
:100650000a00e00025003a00800578000d40e10026
:100660004900310088007800070078001100090077
:100670004d88d8000c01b8000d02b80084814100fb
:1006800060824a006003110083835b0004045c0005
:10069000e0845c000900e00021003a004f01be0048
:1006a0000300e0002b003200e30160000706730046
:1006b0008c81710001003200640070004200de0095
:1006c0004e5edd000c007000c258de0001e0a000ac
:1006d0009b000700cf017800818071004f06be00ab
:1006e0004f05be004f04be00000006008c8343008f
:1006f0000d044c00e0844c0060054d000000e90052
:100700000a00e000d4ff32008c8343000d044c004b
:10071000e0844c0060054d000000e900ceff37008a
:100720000c0343008d834b0060044c00e0844c00bc
:100730000000e9000900e000d8ff32000c0343008c
:100740008d834b0060044c00e0844c000000e90005
:10075000d2ff37004200de004e5edd000c0070006c
:10076000c258de0001e0a000cf0178000300e000e5
:10077000daff320060001000e0801800d7ff370079
:10078000f0ff2f00aaff3700f0ff2f00b9ff37005e
:100790000404be0050000700870678000004fd0036
:1007a0008104fd004c000700078366000678a30063
:1007b000030032000960a7000800be002c003700cb
:1007c0000d78a300020032000800be0028003700a8
:1007d0000778a30026003a0001f0a10009f0a1006b
:1007e0000668a30003003200f1ff2700f0ff2f008e
:1007f000baff37000d68a300030032000800be00f6
:100800008c807000b5ff37000768a30007003a002e
:100810000648a30003003200f1ff2700f0ff2f007d
:10082000aeff37000d48a300030032006000b8009f
:100830008c807000a9ff37000748a3000400320035
:1008400001f82700000020008c807000a3ff370013
:100850008e0007000004fd008104fd000205780001
:100860008a0007000802be008a01780059ff37009d
:100870000160a00012022000e241880097ff3700cb
:100880000100e000120032000500e000100032001c
:10089000889fbe008a9fbe008c9fbe000006eb00b2
:1008a00001f8a3000300320060001000e08018008f
:1008b0000cf0a00005f8a300030032006002120053
:1008c000e0821a000cf0a2008005eb0041ff370027
:1008d0006000b800020005002700200001f0a7001a
:1008e00017002000470bde00f60fb20004003200b4
:1008f0000643e8000a0032004702b3000000060089
:1009000001037800f607b2000603700002003a0007
:100910000703b300000006008702b30000000600d2
:1009200001037800f607b2000603700002003200ef
:100930000770a000000006000760a000000006008d
:1009400081017000270032008002eb0001f8a30053
:100950000300320060001000e08018001500200045
:10096000f40720000202420020003400f7032000b8
:1009700087036000060420000003630002082000d3
:10098000000161004700de00c909dd000080710040
:10099000c708de000600e00008003200870371008f
:1009a000060032001000b0000180b0000188a300f2
:1009b00002003200c108de000402e800f107b200c4
:1009c000f30f20000320e10003003d004722dd007b
:1009d000810072002900370001f827000000eb00b9
:1009e000260037006000b800000006006802120010
:1009f0007f20e100020034006000b8001f003700d3
:100a00006011b8007020e10004003500800178001a
:100a1000010078008000eb00700252000400e0004a
:100a200009003400f00312000719dd008419de000c
:100a30000703dd00868171000400de00070bdd0086
:100a4000060070008408de00f7ff27008383630040
:100a500087037100060028000303630007003200cb
:100a60000700e00003003a006101600002817300aa
:100a7000020032001000b0000180b0000500a600a6
:100a80000000060001f0a000000006004f0ade0092
:100a90004709de00f107b200f20fb2000b0032008e
:100aa000f207b1000170a000c708dd00c901de0037
:100ab000838070004700dd000400a60000000600ef
:100ac00060001000e080180000000600810f700038
:100ad00001003a00000006008182cf000500e0001e
:100ae00010003e008082cf00ee8242007028e100bc
:100af0000400390007003e00800078000000eb0091
:100b00000e003700708312008600de000500dd0055
:100b10000a003700708352008600dd000000eb0001
:100b200006003700e28252008508dd007083120063
:100b30000603de00868070000500dd007507b0004a
:100b40000501ea000400a600000006006000100095
:100b5000e080180000000600889fbe008a9fbe004b
:100b600000827000040271000482710026003200cd
:100b70000004be000200be006011b8006b09200036
:100b8000950220000182cf000a0039000541b10022
:100b90000082cf00070039000541b1000982cf0073
:100ba000040039000541b1000882cf00010039007e
:100bb0000541b10005425200120032000a003b001c
:100bc00082817100610164008100d1000080d30046
:100bd0008984d3000884d3008b05e8000442e80030
:100be000f7ff3a00070037000804440089844c00ee
:100bf00000004800818048008b05e9000442e900bc
:100c0000f9ff3a00030007004f05be004f04be0085
:100c10000000060081002000618055000b003d00af
:100c20000b00200061fe2f000100e1001d003400d8
:100c300082817100610164008904d1000884d300bd
:100c40000000e800faff3a00710020006100640033
:100c500003007000020060000900320061044400db
:100c6000e0844c000988a500050032008b05e800ef
:100c70006808e10002003a008904d1000884d3002a
:100c8000f20f20000258e10005003d00c75ddd00c5
:100c9000f907b2008980750008007800000006009e
:100ca0000bf827008b007800000005000400fa0014
:100cb000889fbe008a9fbe000004be004709de0078
:100cc00003002000f20fb200f207b100f60f51004e
:100cd00031003c000200e0001c003500faff2f004c
:100ce000fb0720000201e900030033008b85d100df
:100cf0000a85d300fbff37008b8164000a01600086
:100d0000e00f5100e08f5900230032000200200064
:100d100003b82700ae000700a0bf9f00b1bf9f002f
:100d2000e00f5400e08f5c00020035000a0444002c
:100d30008b844c000a85ea008b85ea008b80640076
:100d40000a0064000004be00120037000200200008
:100d500003b827009e000700a0bf9f00b1bf9f00ff
:100d6000e00f5400e08f5c0003003d00080020000d
:100d700009002800070037000800440089804c0063
:100d8000e00f5000e08f5800020032000800200001
:100d900009f823000800be004f05be004f04be0046
:100da0000080fa0000000600800178000200370091
:100db000b15978000201e9000200e000fcff3a00ae
:100dc00000000600889fbe008a9fbe008004780055
:100dd0000200e0005a00320001407800814c7800a7
:100de00082814400f1f99f00e20f51005400360067
:100df00091449800a1449800e1f99f00d1f99f0027
:100e0000e60f51004e003600b1449800c1f99f0032
:100e1000e80f51004a0036000905ea006305650045
:100e20000a8444000a055100c1ff2f000105650036
:100e30000080fb008000eb00121020001310200047
:100e400054000700008cbe000a01440060b99f00f6
:100e500071b99f00e80f5500390036002004980052
:100e600031049800400498005104980020b99f0074
:100e700031b99f0040b99f0051b99f00f80f55004c
:100e80002f0036006004980071049800000c980050
:100e9000110c9800200c9800310c9800400c980020
:100ea000510c980020b19f0031b19f0040b19f00cc
:100eb00051b19f0060b19f0071b19f0000b99f00c8
:100ec00011b99f00640164007801410002044400ec
:100ed000020555006011b8000203be000002be000a
:100ee0000403be006022b80000007200818072001e
:100ef00002017300838173000f003700080278003d
:100f0000009abe00029abe00009abe000292be0085
:100f1000000c9800110c9800220c9800330c9800db
:100f2000400c9800510c9800620c9800730c9800cb
:100f30000a02b1000802b000ff0f5500efff3e00ab
:100f4000090078004f05be004f04be0000000600f7
:100f50000000e9008000eb00b0078900c1078900ac
:100f600000000600d2f2270053c92400b007810018
:100f7000c10781000700070061014000e0814800cf
:100f8000b2078900c30789004118de000100200074
:100f900000000600020ab900001bb9000200b800f8
:100fa00081004200810043000000060007f827008e
:100fb000078361000638e10004003a00f7072000cb
:100fc000878361008703710001003a0003f0a200eb
:100fd000889fbe008a9fbe008c9fbe00470ade002d
:100fe0000480a100c71ade000580a10007002800c8
:100ff0000785600087856100f70f20000720e1006a
:101000009e0032000728e1009c00320001067800b3
:101010000400e000b4003200f70720008780600081
:101020000170a0000500e000c0003200f7072000ba
:10103000878161000370a000050652000f003a008e
:101040000b50e1000b0032000308e10002003a00ff
:101050000200e1007e003200020450008384580048
:10106000040031000001fd008101fd008402fd004b
:101070008a05fd006044b800210037000520e1002a
:1010800005003d000001fd008101fd008402fd001e
:101090008a05fd00050652007a60e1000500350072
:1010a0000170a1004722dd00848070008a807000fa
:1010b000630037006044b800ef02660007ff2f00ae
:1010c000070666000500e00006003400f083120009
:1010d0008714dd000511de00071bdd00060171002d
:1010e0008519de007060e100050035000904780014
:1010f00082047800030178008001eb00700656003e
:101100000b50e10003003a000200400083804800d9
:101110000400370060041400e0841c000200580042
:10112000838058000188a300060032008100d100ae
:101130000080d3008984d3000884d3000402e8002f
:10114000270037000178a30025003a000100e000e5
:10115000030032008186cf00698656000a003700fe
:101160008c0020000000e00004003a000900780034
:10117000880478000004eb00700252008086cf00e3
:101180000d0646000c06e9007060e100060035001f
:101190008000780009007800880478000004eb00e3
:1011a00070065600700252000c00e0000c00340083
:1011b0008c08dd00f00316000703de008680700057
:1011c0000c00dd00074bde00060070008c4cdd00db
:1011d0000743de00868474000c44dd000c025200dc
:1011e0006120e10020003500610160000700280057
:1011f00087816400f7ff270087836400070374007a
:101200000300e00006003200820373000400320095
:101210000000e800e08048000188a3000e003a00ca
:10122000f70f20000720e1004a003d000170a100f7
:101230004722dd00810072008a8070000000be003d
:101240004f06be004f05be004f04be000000060062
:101250006000b800faff37008100d1000080d300a1
:101260000402e800eeff37000401780089017400f1
:101270003c0007008a807000f1ff370096fd0700f0
:10128000070278000001fd008101fd0092fd0700ca
:1012900087027800850372000778a30004003200fb
:1012a0000001fd008101fd0058000700e4ff370048
:1012b000850362000768a300080032000b50e100bc
:1012c00003003200f0ff2f00f1ff2700dcff3700a2
:1012d0000001fd008101fd00d9ff37000468a30073
:1012e000d7ff3200faff3700f8ff2700888360003d
:1012f0000b003a000000e00009003a00830364009c
:1013000082837300020032000200be00ccff37006f
:101310000b50e100ceff3a000200be00c8ff3700cc
:1013200014002000810064003eff3700f8ff270012
:101330008883610004003a000200e00002003a00e5
:101340008c007800beff3700150020008301640088
:1013500039ff370001f827000000200081007500e8
:10136000b7ff37000100e0002600320061011100e4
:101370007810e10023003c006022b8007010e1000a
:101380000400350080027800010078008000eb0046
:10139000700151000200e0000900340070031100e8
:1013a000062add00822ade008603dd0087827200c5
:1013b0000200de00860bdd00070070008208de0000
:1013c00084817100f4ff270004826200848171002f
:1013d00004002800848262006102600005f0a6001b
:1013e0000000060004827100070032000000e800df
:1013f000e0804800000006000002be006000b80067
:10140000efff37006000b800000006000478a3007a
:10141000040032000578a300030032000168a30035
:1014200001003a000200be000160a00000000600ba
:020000040000fa
:101430004672000065650000525400004f530000e2
:101440002f7000006f72000074610000626c000079
:10145000652f0000706f0000727400002e630000a2
:1014600000000000111100002222000033330000b0
:101470004444000055550000666600007777000080
:101480008888000099990000aaaa0000bbbb000050
:10149000cccc0000dddd0000eeee0000cecd000083
:1014a000acab00000400000046720000656500005f
:1014b000525400004f5300002f7000006f72000064
:1014c00074610000626c0000652f00004d65000033
:1014d0006d4d0000616e0000672f00006865000020
:1014e000617000005f3400002e6300000000000007
:1014f0004672000065650000525400004f53000022
:101500002f73000074720000656100006d5f0000c1
:101510006275000066660000657200002e630000c0
:101520000000000046720000656500005254000093
:101530004f5300002f650000766500006e740000b8
:101540005f670000726f000075700000732e00006e
:101550006300000046720000656500005254000000
:101560004f5300002f740000617300006b73000084
:101570002e63000000490000444c000045000000bc
:101580006d610000696e00002e63000000540000d1
:10159000736b000031000000547300006b320000d8
:1015a0000000000046720000656500005254000013
:1015b0004f5300002f710000756500007565000035
:0815c0002e6300000000000092
:020000040000fa
:1015c8001000fa0064034700000b7800660047002b
:1015d8000108780068004700020878006a004700a0
:1015e800030878006c004700040878006e00470084
:1015f80005087800e0022000951c0700000f78001d
:101608001e0078000000e00011003200680047006a
:1016180010007800000040008d1c07008000780052
:101628001e00780078004000010878001e0078004d
:1016380078004000100078000000e00004003a0044
:101648001e007800311d07000000eb00000f780035
:101658001e0078000000e000190032006800470012
:10166800100078008000eb000001eb00821f78007a
:101678009e0378006e014700120378006c01470052
:10168800920278006a014700120278000001be0049
:10169800660047009000780064004700100078005a
:1016a8000e0007008f87e9001e007800c1000700c0
:1016b800110020000e80e8000108780003003700c0
:1016c8008080eb000e80e800010878000e80e800ba
:1016d800100078000080fa00000006001400fa00ec
:1016e800881f780064044700000c780066004700f3
:1016f80001087800680047000288be006c004700b7
:10170800040878006e00470005087800700047005c
:10171800060878007200470007087800680047004c
:101728001000780000004000f200470091007800a7
:10173800f88040009101780000017800510a2000eb
:10174800030078009dfd07007200470090007800b4
:101758000e80e800f8804000110878007200470009
:1017680010007800780040001000780061006000e8
:10177800004078000004e0000300320091362000a9
:10178800a0aa2800391e0700720047001000780040
:101798007800400090007800680047001001780049
:1017a800f0ff27000000410000004000808040005a
:1017b80072004700100078000002b00001087800ad
:1017c80066004700100078000000e0001e003200ac
:1017d8000000eb00000f780010003700660047009b
:1017e800100078001e00400090407800720047000a
:1017f800100078001e0040007a0040000148780080
:1018080066004700100078001e0040001040780075
:101818000004e000050032001e0fe8001e007800fa
:10182800e50f5000edff3600010037000000000012
:1018380072004700100078008040eb007f004000f5
:101848000148780005003700720047001000780052
:101858008040eb007a004000014878006e004700a5
:1018680010007800e30f500003003600310020001c
:101878006e004700010878007200470010007800e9
:1018880076004000ee00470011087800720047001b
:10189800100078002002b000ee0047001108780020
:1018a80072004700100078008000eb004002b00092
:1018b8000108780072004700100078000080e800f6
:1018c8004821070072004700100078006c004000b3
:1018d80044210700720047001000780068004000ab
:1018e800f2004700110878006e00470010007800e9
:1018f800e400100072004700100078006c004000ff
:10190800010878007200470010007800720040005b
:10191800f2004700110878007200470010007800b4
:101928008000eb006002b0000108780072004700f8
:10193800100078008002b000420020008000eb0018
:101948001efd07007200470010007800c002b000ba
:10195800120020008000eb0018fd07006c00470013
:101968001001780064004700900078000e80e800bd
:1019780010007800172007008000780072004700e8
:101988001000780001087800700047001000780007
:101998000000e0000400320070004700900078006a
:1019a80072004700900878004f0478000080fa0021
:1019b800000006000200fa00000f7800cb200700a4
:1019c800404080000000e80040408800004080005f
:1019d8000000e00007003a009e00780001408800ff
:1019e80040408000e10f50000f003a001a0607003f
:1019f8000d003700704080000000e0000a003a0047
:101a08000040800076004000900078001e007800ba
:101a18007600400010007800808f500002003e00e1
:101a28009e00780001408800b04080000000e80077
:101a3800b04088001e0078007600400090007800d2
:101a480060408000808f5000040036001e0078003f
:101a58007600400010007800604088001e81e80091
:101a68001e00780076004000100078006a00b90077
:101a780080007800c00922000080400082007800c1
:101a8800e0200700a6200700704080000000e0006a
:101a98000b00320000408000760040009000780083
:101aa8001e0078007600400010007800808f5000fb
:101ab8000300310058500200000000000000000040
:101ac8000080fa00000006000400fa008e80e8009a
:101ad80080087800852007000e80e8001000780054
:101ae8000000e00002003a000040800002003700d9
:101af8000e80e80010007800000f78001e80e800d3
:101b0800322107001e0078007400400010007800a1
:101b18000000e000030032009e0078006c80400066
:101b28002a210700b04080000000e800b04088008b
:101b3800004080009e007800808f500008003a0026
:101b48001e80e80080007800200e2200ad200700eb
:101b5800304080000000e800304088000600370070
:101b6800404080000000e900404088001e007800e6
:101b7800250607002e060700692007007040800030
:101b88000000e0000d003200004080009e00780058
:101b9800808f500009003a00e04080000000e0001b
:101ba80003003200e14c2000a0aa28002f1d0700e6
:101bb8005850020000000000000000000080fa00f9
:101bc800000006000c00fa006801470000097800d0
:101bd8006a004700010878000000eb00000f780059
:101be80068004700100078000000e00003003a0099
:101bf800314e2000a0aa28001c1d07006a004700db
:101c0800100078000000e00003003a00414e200078
:101c1800a0aa2800151d0700e04080000000e00091
:101c280003003200514e2000a0aa28000f1d070013
:101c3800400207000e80e80051408000010878004b
:101c48006800470010007800900078006a0047009c
:101c58001000780080804000640047000108780088
:101c68006800470010007800900078000e80e800b7
:101c780010007800808f5000100036006800470080
:101c88001000780090007800640047001000780089
:101c9800808f5000180036006400470090007800dc
:101ca8000e80e80010007800808f50001200360087
:101cb80010002000000f78000f0037006800470070
:101cc8001000780090007800640047001000780049
:101cd800808f500006003e006400470090007800a6
:101ce8000e80e80010007800808f50000200360057
:101cf80010002000000f780068004700900078006e
:101d080064004700900878001e0078000000e0009a
:101d18000700320064004700900078000e80e80059
:101d280010007800008050008000eb00d70a070000
:101d38000602070080007800660047000108780066
:101d480066004700100078000000e00003003a0039
:101d58005850020000000000000000000080fa0057
:101d6800000006000400fa008e80e8008008780071
:101d78000000eb00000f78000e80e80010007800eb
:101d88000000e0000d003200e04080000000e000ac
:101d98000300320091532000a0aa2800b31c0700ba
:101da800e40107008000eb000e80e80010007800d6
:101db800b60a0700e5010700000f78001e0078004a
:101dc8000000e00003003a00585002000000000044
:101dd800000000000080fa00000006000c00fa0075
:101de80068014700000978006a0047000108780088
:101df8000000eb00000f78006a0047001000780030
:101e0800e30f50000300360051602000a0aa28000c
:101e1800961c07006a00470010007800e30f500086
:101e280003003600310020006a00470001087800ee
:101e3800ae1f070068004700100078000000e000af
:101e480002003a00004080000200370068004700a6
:101e5800100078008e80e800800878000e80e80086
:101e680090007800640047002102b0001108780053
:101e780064004700900078006a004700100078006e
:101e8800808f5000710032006a004700900078008f
:101e98006400470010007800808f50000f00360063
:101ea800014080000e80e80010007800810f50008b
:101eb8001100320000408000760040009000780059
:101ec8006a00470010007800808f50000a003e002a
:101ed80010002000000f7800070037000140800044
:101ee8000e80e80010007800810f500002003a00d0
:101ef80010002000000f78000e80e80090007800a5
:101f080066004700f6804000110878000e80e8005f
:101f1800100078002002b000900078000e80e800e1
:101f2800100078007600400010007800808f500084
:101f380005003a000e80e8001000780076004000a6
:101f4800ea004700110878000e80e80010007800c9
:101f58002002b000ea004700110878000e80e8006f
:101f6800100078006c004000100078000000e000cd
:101f7800070035006a00470010007800e4001000f0
:101f88000e80e800100078006c004000010878001e
:101f98000e80e800100078006a0040001001780008
:101fa80066004700100078006a00b90080007800d9
:101fb800c009220000804000800f51001d003a0037
:101fc8000e80e800100078000080e800ff1f07007e
:101fd8000e80e8001000780076004000900078003d
:101fe80060408000808f5000050036000e80e800b9
:101ff80010007800760040001000780060408800eb
:102008000e80e800100078000081e8000e80e800eb
:102018001000780076004000100078006a00b900cf
:1020280080007800c009220000804000820078000b
:10203800741f07001e0078000000e0000300320053
:10204800585002000000000000000000341f070084
:102058000080fa00000006000600fa00e4004700cd
:1020680080087800211f07006400470010007800ee
:102078000000e00002003a00004080000200370043
:1020880064004700100078008e80e800800878001f
:102098000e80e800100078000080e800cb1f0700e1
:1020a8000e80e800100078007400400010007800ee
:1020b8000000e000040032000e80e8001000780004
:1020c8006c004000c11f07000e80e8001000780077
:1020d8000080e80080007800c00e2200491f070039
:1020e8000000eb00000f78000f0037000e80e800ba
:1020f80090007800c20220001e00410000804000cd
:1021080010407800e14f500006003a000e80e800c9
:10211800100078001e004000c002b0008040eb00b4
:10212800014878001e0fe8001e0078000000e0005b
:10213800eeff3400fa1e0700704080000000e00047
:1021480003003200e91e0700b9040700f41e070067
:10215800014080000e80e80010007800810f5000d8
:1021680014003a00704080000000e0000a003200cd
:10217800e04080000000e00003003200d16e200043
:10218800a0aa2800b91b0700585002000000000050
:102198000000000007003700610781004040800010
:1021a800808f500002003a000028ef00010037003d
:1021b800890207000080fa00000006000600fa0005
:1021c800e4004700800878000000eb00000f78006a
:1021d8000e80e800e400470011087800640047001a
:1021e800100078000000e00003003a007171200040
:1021f800a0aa28009d1b07000e80e80010007800a8
:102208006a00400090007800c00e2200808f5000c5
:102218000f003a000e80e8001000780074004000bb
:1022280090007800800d2200808f50000800320056
:102238000e80e8001000780074004000100078005c
:102248000000e00002003a0010002000000f7800b3
:102258001e0078000080fa00000006000400fa0062
:102268008e80e800800878000e80e800100f780063
:102278000e80e800100078000000e00003003a003b
:1022880011742000a0aa2800781b070000408000d5
:102298009e007800808f50002a0032001e007800cf
:1022a8000000e00027003200901e07001e007800a2
:1022b800c2ff07000000e000210032001e80e80095
:1022c800421f07001e00780076004000900078004a
:1022d80060408000808f5000040036001e007800a7
:1022e8007600400010007800604088001e81e800f9
:1022f8001e00780076004000100078006a00b900df
:1023080080007800c0092200008040008200780028
:10231800bc1e07001e007800760040009000780080
:10232800004080007600400010007800808f500048
:1023380003003900585002000000000000000000af
:10234800771e07000080fa00000006000800fa0067
:10235800e6004700800878000000eb00000f7800d6
:102368000e80e800e6004700110878006600470084
:10237800100078000000e00003003a008177200098
:10238800a0aa2800391b07008000eb006400470062
:10239800010878000e80e8001000780087ff070029
:1023a8000000e00032003200e04080000000e00061
:1023b80029003a000e80e8001000780076004000fe
:1023c80090007800004080007600400010007800ff
:1023d800808f50000200390010002000000f7800a4
:1023e8000e80e800100078000080e800f71e070063
:1023f8000e80e80010007800760040009000780019
:1024080060408000808f5000050036000e80e80094
:1024180010007800760040001000780060408800c6
:102428000e80e800100078000081e8000e80e800c7
:102438001000780076004000100078006a00b900ab
:1024480080007800c00922000080400082007800e7
:102458006c1e0700060037000e80e80010007800a8
:102468006c00400080007800800d2200651e070087
:102478001e0078000080fa00000006000200fa0042
:10248800a58120000002eb008001eb00320720004c
:10249800b1ab28008091210049fc0700000f7800ab
:1024a8001e007800e10f50000e003a001102800073
:1024b800f0f12f00008060000050a000100288009a
:1024c80000000000000000000080eb00c040880011
:1024d80010002000704088000a28ef00cd1d07007a
:1024e800060037001e007800e10f400003003a00a4
:1024f800b1822000a0aa2800dc1a07000080fa0098
:10250800000006000000fa0011028000f0f12f0020
:10251800008060000050a000100288000000000049
:10252800000000000e28ef00d21d07000080fa000e
:10253800000006000000fa00e04080000000e8000b
:10254800e04088000080fa00000006000600fa005b
:102558000000eb00000f78008000eb000e80e80020
:1025680001087800e04080000000e00003003a0025
:10257800a1892000a0aa2800bc1a0700db1d0700bb
:10258800e04080000000e900e0408800e040800072
:102598000000e00051003a00404080000000e000e8
:1025a8004e00320027003700f00681006600400028
:1025b80010007800000f78009e0078006c804000c2
:1025c800821e07001e80e800801e07001e0078009b
:1025d800760040009000780060408000808f5000b6
:1025e800040036001e0078007600400010007800d5
:1025f800604088001e81e8001e00780076004000d8
:10260800100078006a00b90080007800c009220034
:102618000080400082007800fa1d07001e00780044
:10262800760040009000780000408000760040006e
:1026380010007800808f5000020039001000200040
:1026480090408800c00681000000e000d6ff3a00f4
:102658001e0078000000e00001003200740307004b
:10266800640047008140800001087800640047004a
:10267800100078000000e0000f0032005c00070046
:102688000000e000020032001000200090408800a6
:1026980064004700100078008000e90064004700eb
:1026a8000108780064004700100078000000e0008e
:1026b800f2ff3a001028ef00904080000000e00090
:1026c80006003200110020000e80e80001087800a2
:1026d800585002000000000000000000901d070094
:1026e8000e80e800100078000080fa000000060064
:1026f8000200fa007d1d070051408000010f78009c
:10270800871d07001e0078000080fa000000060000
:102718000400fa000000eb00000f78000e80e800cb
:1027280051408000010878000e80e8001000780011
:102738000080fa00000006000000fa004040800017
:102748000080fa00000006000400fa008e80e8000d
:10275800800878000e80e800100078000000e00093
:1027680002003a0000408000020037000e80e800b6
:1027780010007800000f78001e0078000000e000cc
:1027880003003a00f1932000a0aa2800371a070096
:102798009e0078007a8040000080fa000000060061
:1027a8000400fa008e80e80080087800e04080008d
:1027b8000000e00003003200a1a32000a0aa280026
:1027c8002a1a07005bff0700814080000e80e8009e
:1027d8001000780000804000804088005bff070000
:1027e800000f78001e0078000080fa000000060044
:1027f8000a00fa000000eb00000f7800e0408000bb
:102808000000e00087003a00504080008000e800a7
:102818000e80e800010878000e80e800900078003b
:10282800514088000e80e800100078000000e000a9
:1028380013003a0010408000100078000000e0000b
:1028480003003200d1aa2000a0aa2800071a070016
:102858006400470011408000010878002040800093
:1028680010408800640047009000780021408800ec
:10287800a04080000000e800a0408800ec020700ab
:10288800c14080000e80e80010007800810f5000e1
:10289800520039000100370000000000104080009d
:1028a800100078000000e00003003a000080eb0010
:1028b800c040880049003700104080006600400092
:1028c800100078006600400090007800660047001d
:1028d800010878006600470090007800680047000b
:1028e8008180e800110878000e80e80090007800e8
:1028f8006800470010007800808f50000400310005
:102908006800470090007800c14088003300370015
:1029180066004700100078000080e800ab1d070043
:10292800660047001000780074004000100078002e
:102938000000e00004003200660047001000780044
:102948006c004000a11d07006600470010007800d9
:10295800760040009000780060408000808f500032
:102968000500360066004700100078007600400039
:10297800100078006040880066004700100078006a
:102988000081e800660047001000780076004000eb
:10299800100078006a00b90080007800c0092200a1
:1029a8000080400082007800161d0700660047007e
:1029b8001000780076004000900078000040800009
:1029c8007600400010007800808f5000b2ff390078
:1029d80010002000000f7800b0ff37000040800092
:1029e80076004000100078006a00b9008000780086
:1029f800c00922000080400010007800e10f50005c
:102a08000200360010002000000f7800904080007f
:102a18000000e0000600320010002000000f7800df
:102a280003003700804080000000e80080408800f4
:102a38001e0078000080fa00000006000600fa0078
:102a48000e81e8000009780064004700010878005a
:102a58000e80e800100078000000e00003003a0053
:102a680001408000010f7800020037000e80e80066
:102a7800100f78009d1c07001e0078006002b0004f
:102a8800e400470011087800a51c07000080fa0040
:102a9800000006000600fa00e400470080087800fd
:102aa80064004700100078000000e00002003a00cf
:102ab80000408000020037006400470010007800e2
:102ac800000f7800891c07009e0078000e80e8003f
:102ad8006102b00011087800911c07000e80e80020
:102ae800100078000080fa00000006000800fa00d4
:102af800e60047008008780066004700100078006c
:102b08000000e00002003a000040800002003700a8
:102b18006600470010007800000f78008000eb0086
:102b28000e80e800010878009e00780064004700e5
:102b38006102b000110878006400470010007800b6
:102b48000080fa00000006000800fa00640147004f
:102b58000009780066004700010878006400470013
:102b6800100078000000e00003003a0001408000f7
:102b7800010f78000200370064004700100f78004a
:102b88001e0078006002b000100078000000e0002d
:102b98000a0032001e0078006002b0009000780041
:102ba80066004700100078000100010080007800ee
:102bb8000e80e80001087800030037008000eb0071
:102bc8000e80e800010878000e80e8001000780008
:102bd8000080fa00000006000400fa00e0408000cf
:102be8000000e00003003200100020009040880040
:102bf800400037001228ef0061408000010f780084
:102c0800070037001e0078000000e00003003a00cb
:102c180081be2000a0aa2800141907001e0fe90091
:102c28001e0078006a00b90080007800c009220000
:102c380000804000100078000000e000f1ff320042
:102c48001e0078006a00b90080007800c0092200e0
:102c5800808040000e80e800010878000e80e800bf
:102c6800100078000080e800100078000080e8007c
:102c7800900078000e80e800100078000080e800de
:102c8800010878000e80e800100078000080e80055
:102c9800900078000e80e800100078006400400082
:102ca800808f50000a003a000e80e800100078007b
:102cb8000080e800100078000080e80090007800ac
:102cc8000e80e800100078000080e8000108780015
:102cd8000e80e800100078000080e80010007800fe
:102ce8006600400010007800004088009e007800d0
:102cf800614088000080fa00000006000400fa0025
:102d0800000f78000e80e800010878001e007800a7
:102d18000000e00003003a0021c02000a0aa28001b
:102d2800d2180700004080006c0040008000780046
:102d38001e0078005f1c0700110020000e80e800cc
:102d480010007800d10607000080fa000000060095
:102d58000600fa00000f78000e80e80001087800ed
:102d680064004700020878001e0078000000e000b8
:102d780003003a0051c12000a0aa2800bb18070090
:102d8800e04080000000e00003003a0091c120000c
:102d9800a0aa2800b5180700024080000e80e800ad
:102da800100078008000780001f0a0006c0041005d
:102db80001087800004080006c0040008000780026
:102dc8001e0078000f1c0700110020006400470057
:102dd80010007800ad0607000080fa000000060029
:102de8000600fa00e4004700800878006400470005
:102df800100078006600400010007800660040006f
:102e0800900078000e80e800010878000e80e80045
:102e1800100078000000e00003003a0011c620000e
:102e2800a0aa2800911807000e80e800100078007a
:102e38006c004000651c0700e04080000000e000d6
:102e48001e003a000e80e800100078000080e800bc
:102e58005e1c07000e80e800100078007600400035
:102e68009000780060408000808f50000500360098
:102e78000e80e8001000780076004000100078000e
:102e8800604088000e80e800100078000081e800ab
:102e98000e80e800100078007600400010007800ee
:102ea8006a00b90080007800c00922000080400054
:102eb80082007800d31b0700060037000e80e80068
:102ec800100078006c00400080007800800d22001f
:102ed800cc1b07000e80e800100078007600400048
:102ee80090007800004080007600400010007800d4
:102ef800808f50000500360010002000000f780079
:102f08001000200090408800020037000000eb000d
:102f1800000f78001e0078000080fa00000006000c
:102f28000600fa000e81e8000009780064004700f6
:102f380001087800e04080000000e00003003a004b
:102f480091c92000a0aa280048180700640047007b
:102f5800100078008000780001f0a0000e80e800e2
:102f680010007800010878000e80e8001000780052
:102f78006600400010007800000f78001e007800fe
:102f88000000e00003003a0011ca2000a0aa2800af
:102f9800361807000e80e800100078000b1c0700a8
:102fa8001e80e800091c07001e007800760040001b
:102fb8009000780060408000808f50000400360048
:102fc8001e007800760040001000780060408800fd
:102fd8001e81e8001e00780076004000100078008e
:102fe8006a00b90080007800c00922000080400013
:102ff80082007800831b07001e00780076004000de
:1030080090007800004080007600400010007800b2
:10301800808f500002003600100020009040880089
:103028000080fa00000006000200fa00000f780095
:103038001e0078000000e00003003a0051cc200098
:10304800a0aa280009180700281b0700a140800033
:103058001e00780001087800514080001e007800aa
:103068000080e800010878002d1b07000080fa00a6
:10307800000006000200fa00000f7800a14080005e
:103088001e00780001087800514080001e0078007a
:103098000080e800010878000080fa0000000600bf
:1030a8000a00fa0066014700000978006800470036
:1030b8000108780066004700100078000000e00072
:1030c80003003a00c1cd2000a0aa2800e717070096
:1030d80068004700100078000000e00003003a0094
:1030e800d1cd2000a0aa2800e0170700ff1a07008a
:1030f8000e80e80051408000010878006600470013
:10310800100078000080e800900078000e80e80049
:103118001000780081005000640047000108780022
:10312800680047001000780010007800e10f4000a8
:1031380003003a000000eb00000f78003100370070
:10314800660047001000780090007800a0408000da
:10315800808f50000f003200660047001000780092
:103168000080e800900078000e80e80010007800e9
:10317800808f500007003e0010002000000f7800ec
:1031880068004700100078008000eb000108780014
:103198001c00370068004700100078009000780095
:1031a8006400470010007800808f50000f00360040
:1031b800680047001000780090007800640047001d
:1031c80010007800808050006800470010007800e8
:1031d800010878006600470010007800a5ff070086
:1031e8000000eb00000f7800060037006800470079
:1031f800100078008000eb00010878001000200023
:10320800000f7800c61a07001e0078000080fa0038
:10321800000006000000fa0010002000904088001e
:103228000080fa00000006000200fa00000f780093
:10323800010037000000000025000700e0048100bd
:10324800e10f5000fbff360058500200000000005c
:1032580000000000f8ff37000200fa000000eb0051
:10326800000f7800070037001e0078006a00b900d8
:1032780080007800c009220000804000bc1a0700c6
:103288001e0fe8001e007800e30f5000f6ff36001e
:10329800400c2200b61a0700e00c2200b41a0700fe
:1032a800800d2200b21a0700200e2200b01a070073
:1032b800c00e2200ae1a0700400c22001040880001
:1032c800e00c2200204088000080fa000000060080
:1032d8000200fa0010003700841a07004007810036
:1032e8006600400010007800000f78001e80e8009b
:1032f800361b0700404080000000e900404088007d
:10330800304080000000e90030408800841a07003f
:103318001e0078003c000700304080000000e000fc
:10332800edff3a000080fa00000006000600fa00ef
:10333800e4004700800878006000b800008fbe00f5
:103348000900370064004700100078008000e90099
:1033580064004700010878001200200003002000e4
:103368001e0f41005e974900640047001000780076
:103378009040780050cab30080cf5000f1ff32006f
:103388001e00be008100d1000080d300008fbe0067
:103398001e0078000080fa00000006000800fa000d
:1033a800e6004700800878006600470010007800b3
:1033b8000000e00002003a000040800002003700f0
:1033c8006600470010007800000f78001e007800a3
:1033d8000002b000900078000e80e8000108780034
:1033e8000e80e80010007800d0ff07008000780009
:1033f8006400470001087800640047001000780066
:103408000080fa00000006000200fa00000f7800b1
:103418001e0078007800400010007800bb150700f7
:103428001e007800b91507000080fa0000000600a9
:103438000000fa0010408000100078000000e00052
:1034480003003a000080eb00c04088000500370008
:1034580010408000660040001000780010007800de
:10346800c04088000080fa00000006000200fa0050
:1034780001408000010f78001e0078000080fa00eb
:10348800000006000600fa00e40047008008780003
:103498000e80e800e4004700110878000000eb0007
:1034a800000f780064004700100078000000e0007a
:1034b8005f0032000e80e8001000780076004000bf
:1034c80090007800004080007600400010007800ee
:1034d800808f50004b0031000e80e800100078000b
:1034e8006c004000100078000000e0000800350083
:1034f800004080007600400010007800e4001000d2
:103508000e80e800100078006c0040000108780088
:103518000e80e800100078006a0040001001780072
:103528000e80e80010007800760040001000780057
:103538006a00b90080007800c009220000804000bd
:10354800800f510025003a000e80e8001000780036
:103558000080e8009d1a07000040800076004000c7
:10356800900078000e80e800100078007600400097
:10357800010878000e80e80010007800760040000e
:103588009000780060408000808f50000500360071
:103598000e80e800100078007600400010007800e7
:1035a800604088000e80e800100078000081e80084
:1035b8000e80e800100078007600400010007800c7
:1035c8006a00b90080007800c0092200008040002d
:1035d800820078000b1a07000700370000408000bf
:1035e80076004000900078000e80e8001000780017
:1035f800760040000108780010002000000f7800d5
:103608000b0037000e80e800100078002002b000a0
:10361800900078000040800076004000100078009c
:10362800808f50000200310010002000000f780049
:103638001e0078000080fa00000006000600fa006c
:10364800e4004700800878000e80e800e4004700a6
:10365800110878000000eb00000f780064004700b4
:10366800100078000000e0005a003200014080009d
:103678000e80e80010007800810f5000030032002f
:10368800e1022100a0aa2800781607000e80e800b1
:10369800100078004002b000100078000000e00040
:1036a80003003a00f1022100a0aa28006f160700c3
:1036b8000e80e800100078004002b000100078008a
:1036c8008000e9000e80e800100078004002b00099
:1036d800010878000e80e8001000780076004000ad
:1036e800900078000e80e800100078002002b000fa
:1036f80010007800808f5000360032000e80e800fd
:10370800100078004002b000100078000000e000cf
:1037180030003a000e80e800100078000080e800d1
:103728002a1a07000e80e800100078002002b00076
:10373800900078000e80e8001000780076004000c5
:10374800010878000e80e80010007800760040003c
:1037580010007800e40010000e80e80010007800e7
:103768006c004000010878000e80e8001000780026
:10377800760040009000780060408000808f500004
:10378800050036000e80e800100078007600400042
:1037980010007800604088000e80e8001000780073
:1037a8000081e8000e80e8001000780076004000f4
:1037b800100078006a00b90080007800c009220073
:1037c80000804000820078008e1907001000200059
:1037d800000f78001e0078000080fa000000060044
:1037e8000c00fa0068014700000978006a004700e9
:1037f800010878000e80e800e8004700110878000a
:1038080011002000640047000108780068004700a4
:10381800100078000000e0006c0032000e80e80024
:10382800100078004002b000100078000000e000ae
:1038380003003a00e1072100a0aa28000b160700a0
:103848000e80e800100078002002b0009000780098
:103858006a00470010007800808f50000300310094
:103868006a004700100f7800040037000e80e80057
:10387800100078002002b000100f78000e80e800d9
:103888001000780076004000100078009e0f50006d
:103898004e0032000e80e800100078004002b000b0
:1038a800900078006400470010007800808f500076
:1038b80046003a00014080000e80e80010007800c1
:1038c800810f500003003a0091092100a0aa2800a6
:1038d800e61507000e80e8009000780066004700b3
:1038e800f6804000110878000e80e800100078008b
:1038f800760040001e0878000e80e800100078006e
:103908006c004000100078000000e0000600350060
:10391800420020009e0051000e80e8001000780050
:103928006c004000010878000e80e8001000780064
:103938006a00400010017800660047001000780017
:103948006a00b90080007800c009220000804000a9
:10395800800f51001d003a000e80e800100078002a
:103968000080e800991907000e80e8001000780030
:10397800760040009000780060408000808f500002
:10398800050036000e80e800100078007600400040
:1039980010007800604088000e80e8001000780071
:1039a8000081e8000e80e8001000780076004000f2
:1039b800100078006a00b90080007800c009220071
:1039c80000804000820078000e1907000080fa008d
:1039d800000006000200fa00004080006c00400071
:1039e800100f780002408000004080007600400000
:1039f80010007800e40010006c0041000108780015
:103a08001e0078000080fa00000006000000fa009e
:103a1800004080000000e000070032000040800005
:103a28004102200080804000910078008100e80079
:103a38004002b00001087800004080000080fa00d1
:103a4800000006000a00fa00e40147008009780037
:103a580066004700010878006800470002087800ff
:103a680064004700100078000000e0000300320006
:103a780031242100a0aa28007c1507009b18070004
:103a88000140800064004700100078006a00400090
:103a98004200dd00008040001000be00e00f500032
:103aa800e08f580012003a0001408000640047008f
:103ab8001000780000804000c002b00011c0b300c0
:103ac8000148780068004700100078000000e00016
:103ad800070032001100200068004700100078003d
:103ae8006a030700585002000000000000000000b0
:103af8008b1807007d18070001408000640047000c
:103b0800100078006a0040004200dd00008040009c
:103b1800301f7800201778001e00be00e00f50000c
:103b2800e08f580018003200660047001000780047
:103b38000000e000090032000140800064004700f6
:103b4800100078006a0040004200dd00008140005b
:103b58006000b8000089be000b00370003408000f9
:103b68000082eb008082eb003e004200ae804a00fb
:103b780064014700120178006a0141004211dd002a
:103b8800028141000089be000140800064004700b6
:103b98001000780000804000c002b0008040eb00b8
:103ba800014878005e1807001e00be000080fa0079
:103bb800000006001000fa00889fbe008a9fbe0021
:103bc8008e83e800800b7800640047000288be00fe
:103bd800680047000488be006c00470001087800b0
:103be8006e004700060878000e80e8001000780094
:103bf8000000e00003003200d1282100a0aa28001c
:103c08001a15070039180700014080000e80e800e7
:103c180010007800c002b00000804000104078001a
:103c2800e24f50002c003200044080000e80e80073
:103c3800100078006a0040004200dd0000004200e9
:103c48001001be00640047001000be000080ea00ba
:103c58008180ea0082027800030178008001780000
:103c6800810078000380620081006100810578008e
:103c7800000578000a00be000e81e80012017800f5
:103c88006a0141004211dd00020142000089be00c4
:103c9800014080000e80e80010007800008040009d
:103ca800c002b00011c0b300014878006e004700a0
:103cb800100078000000e00007003200110020002a
:103cc8006e00470010007800f0020700585002000c
:103cd800000000000000000011180700031807008a
:103ce8006c004700100078000000e0000a00320075
:103cf800014080000e80e800100078006a00400053
:103d08004200dd00008040001000be006c0147004a
:103d1800120178000089be00014080000e80e80092
:103d280010007800c002b000008040001040780009
:103d3800e24f5000030032000000eb00000f780053
:103d48001c003700044080000e80e8001000780056
:103d58006a0040004200dd00000042001001be0081
:103d6800680047001000be000080ea008180ea0079
:103d780082027800030178008001780081007800d1
:103d880003806200810061008104780000047800eb
:103d98000800be000e81e800120178006a014100a7
:103da8004211dd00020142000089be00100020001f
:103db800000f7800014080000e80e80010007800b5
:103dc80000804000c002b0008040eb00014878004d
:103dd800d31707001e0078004f05be004f04be0031
:103de8000080fa00000006001200fa00660347008f
:103df800000b780068004700010878006a00470057
:103e08000288be006e004700040878007000470072
:103e18000508780010002000000f780068004700af
:103e2800100078000000e00003003200512e21004d
:103e3800a0aa28008d14070066004700100078002b
:103e48000000e00003003a00612e2100a0aa28002b
:103e5800861407000e80e800e60047001108780085
:103e6800a217070070004700100078000000e0006b
:103e78000b0032000e80e8009000780068004700d0
:103e8800100078006a0040004200dd000080400019
:103e98001000be0070014700120178000089be00c2
:103ea8000e80e800100178006800470010007800d4
:103eb800c10220008080400064004700810041006a
:103ec800114878000e80e8009000780068004700ec
:103ed8001000780000804000c002b00021c0b3008c
:103ee800014878006e00470010007800e20f50008b
:103ef80021003200e20f500005003e000000e00003
:103f080054003200e10f5000060032004a0037002a
:103f1800e30f50002b003200e40f50003400320051
:103f2800450037000e80e8009000780068004700e0
:103f3800100078006a0040004200dd000080400068
:103f48001001be006a0047001000be0000007100aa
:103f5800818071000e81e8009201780068014700b5
:103f6800120178006a0141004211dd00028141001e
:103f78000089be003a0037000e80e8009000780003
:103f880068004700100078006a0040004200dd0029
:103f9800008040001000be0061004000e080480042
:103fa8000e81e8009201780068014700120178004c
:103fb8006a0141004211dd00028141000089be0012
:103fc800270037000e80e80090007800680047005e
:103fd800100078006a0040004200dd0000804000c8
:103fe800ea00470031187800211078001c003700db
:103ff8006400470010407800e24f50000b00320088
:104008000e80e800900078006800470010007800f3
:104018006a0040004200dd0000804000ea004700de
:1040280031187800211078000d0037000000eb00ef
:10403800000f78000a003700504080000000e000c0
:1040480006003200b1312100a0aa28000714070099
:1040580003003700000000000100370000000000e6
:104068006400470010407800e14f500032003a00e9
:104078000e80e800100078000080e800d3170700e1
:104088000e80e8001000780076004000900078006c
:1040980060408000808f5000050036000e80e800e8
:1040a800100078007600400010007800604088001a
:1040b8000e80e800100078000081e8000e80e8001b
:1040c8001000780076004000100078006a00b900ff
:1040d80080007800c009220000804000820078003b
:1040e800481707000e80e8001000780074004000b0
:1040f800100078000000e00003003200a132210027
:10410800a0aa2800d91307000e80e8001000780044
:104118007600400090007800004080007600400063
:1041280010007800808f50000300360058500200bd
:104138000000000000000000f91607001e007800cb
:104148000080fa00000006001600fa00e8034700a5
:10415800800b78006a004700010878006c0047006f
:104168000288be007000470004087800720047000b
:104178000508780074004700060878001000200041
:10418800000f780068004700100078000000e00089
:1041980003003a0021362100a0aa2800b313070023
:1041a8006a004700100078000000e00003003200b9
:1041b80031362100a0aa2800ac1307000e80e800c1
:1041c800e8004700110878008000eb006400470011
:1041d8000108780072004700100078000000e00035
:1041e8000b0032000e80e800900078006a0047005b
:1041f800100078006a0040004200dd0000804000a6
:104208001000be0072014700120178000089be004c
:104218000e80e800100178006a004700100078005e
:10422800c1022000808040006600470081004100f4
:10423800114878000e80e800900078006a00470076
:104248001000780000804000c002b00021c0b30018
:10425800014878007000470010007800e20f500015
:1042680021003200e20f500005003e000000e0008f
:1042780054003200e10f5000060032004a003700b7
:10428800e30f50002b003200e40f500034003200de
:10429800450037000e80e800900078006a0047006b
:1042a800100078006a0040004200dd0000804000f5
:1042b8001001be006c0047001000be000000710035
:1042c800818071000e81e800920178006a01470040
:1042d800120178006a0141004211dd0002814100ab
:1042e8000089be003a0037000e80e8009000780090
:1042f8006a004700100078006a0040004200dd00b4
:10430800008040001000be0061004000e0804800ce
:104318000e81e800920178006a01470012017800d6
:104328006a0141004211dd00028141000089be009e
:10433800270037000e80e800900078006a004700e8
:10434800100078006a0040004200dd000080400054
:10435800ec00470031187800211078001c00370065
:104368006600470010407800e24f50000b00320012
:104378000e80e800900078006a004700100078007e
:104388006a0040004200dd0000804000ec00470069
:1043980031187800211078000d0037000000eb007c
:1043a800000f78000a003700504080000000e0004d
:1043b80006003200a13a2100a0aa28002b1307000a
:1043c8000300370000000000010037000000000073
:1043d8006600470010407800e14f500043003a0063
:1043e8000e80e8001000780074004000100078008b
:1043f8000000e00003003200513b2100a0aa280081
:104408001a130700e04080000000e0001e003a0098
:104418000e80e800100078000080e800eb16070026
:104428000e80e800100078007600400090007800c8
:1044380060408000808f5000050036000e80e80044
:104448001000780076004000100078006040880076
:104458000e80e800100078000081e8000e80e80077
:104468001000780076004000100078006a00b9005b
:1044780080007800c0092200008040008200780097
:1044880060160700060037000e80e800100078006c
:104498006c00400080007800800d2200591607004b
:1044a8000e80e80010007800760040009000780048
:1044b800004080007600400010007800808f500097
:1044c8000a00360074004700100078000000e00081
:1044d800040032007400470010007800110020002a
:1044e8000108780010002000904088001e00780025
:1044f8000080fa00000006000c00fa00e601470000
:104508008009780068004700010878006a004700c1
:104518000208780066004700100078000000e000fc
:1045280003003a00913e2100a0aa2800cf120700fc
:1045380068004700100078000000e0000300320027
:10454800a13e2100a0aa2800c81207006600470063
:10455800100f78008000eb000e80e800010878005a
:104568001e0178006800470010007800c102200092
:1045780080804000640047008100410011487800b5
:104588009e00780068004700100078000080400016
:10459800c002b00021c0b300014878009e00780036
:1045a80068004700100078006a0040004200dd0003
:1045b800008040001000be0061004000e08048001c
:1045c8009e01780068014700120178006a014100e5
:1045d8004211dd00028141000089be0064004700ed
:1045e80010407800e14f500039003a001e00780072
:1045f80074004000100078000000e0000300320062
:1046080001412100a0aa280098120700e04080007c
:104618000000e00017003a001e80e8006b16070053
:104628001e0078007600400090007800604080000e
:10463800808f5000040036001e007800760040008d
:1046480010007800604088001e81e8001e00780095
:1046580076004000100078006a00b90080007800f9
:10466800c00922000080400082007800e51507009c
:10467800050037009e0078006c80400080007800bc
:10468800800d2200df1507001e007800760040002c
:10469800900078000040800076004000100078000c
:1046a800808f50000a0036006a004700100078002a
:1046b8000000e000040032006a00470010007800a3
:1046c80011002000010878001000200090408800a8
:1046d8000080fa00000006000800fa0064014700a4
:1046e8000009780066004700010878006600470066
:1046f800100078000000e0000300320001442100af
:10470800a0aa28005912070064004700100078008a
:104718000000e00002003a0000408000020037007c
:1047280064004700100078008e80e8008008780058
:104738006e1507000e80e8009000780066004700bc
:1047480010007800c002b0000080400010407800df
:10475800e24f50000b003a000e80e800900078000d
:10476800660047001000780000804000c002b000da
:104778008040eb000148780010002000000f78000e
:10478800020037000000eb00000f780064150700f6
:104798001e0078000080fa00000006000e00fa00f3
:1047a800889fbe0066024700000a7800680047003c
:1047b800010878006a0047000288be0066004700ca
:1047c800100078000000e00002003a00004080007d
:1047d800020037006600470010007800000f7800dc
:1047e800421507009e007800680047001000780016
:1047f8006a0040004200dd00808040000e80e80032
:1048080031187800211078009e0078006800470071
:10481800100078006a0040004200dd00008040007f
:104828001001be006a0047001000be000080ea00c8
:104838008180ea0002027800030178008001780094
:104848008100780003006200810061008104780023
:10485800000478000800be009e0178006801470047
:10486800120178006a0141004211dd000281410015
:104878000089be002a1507000e80e8001000be005f
:104888004f04be000080fa00000006000800fa008d
:1048980064014700000978006600470001087800b5
:1048a80051408000010f7800004080000080e8003f
:1048b800c61507006400470010007800e10f4000ab
:1048c8000a003a0066004700100078000000e00087
:1048d80006003200004080000080e8008000780078
:1048e800c00e220047150700220037006400470069
:1048f800100078009e0040000e80e8000108780053
:10490800004080000080e8008e80e80011087800f0
:104918000e80e800100078009e0f5000070031005c
:10492800004080000080e80022408000800078007d
:10493800020078005f1507000e0037000040800075
:104948000080e800124080008000780002007800b3
:1049580058150700c14080000e80e800100078005c
:10496800810f5000030031000e80e80090007800ad
:10497800c14088000080fa00000006000600fa0026
:104988000e81e800000978006400470001087800fb
:104998000e80e800100f78001e0078000000e0008c
:1049a80003003a00d110200020ad2800af11070005
:1049b800ce1407001e007800100178001e00780051
:1049c8007e004000900078001e0078000002b000d1
:1049d800100078000088b9000000780080004100cd
:1049e8001e00780064004000010878001e0078006e
:1049f8008000eb007c004000010878001e00780071
:104a0800900078001e0078000080e8000108780017
:104a18001e007800100178001e0078007e0040001b
:104a2800100078000000e9009e0078000102b00044
:104a3800910078000180b9000000780080004100f2
:104a48001e00780066004000010878001e0078000b
:104a580080c0eb002002b000014878001e007800fa
:104a680080c0eb003002b0000148780064004700c5
:104a7800100078000000e0000e003a001e007800e8
:104a880068004000100078000000e0000f003200cd
:104a98009e00780068804000d1f807000000e00020
:104aa8000a00320058500200000000000000000018
:104ab800060037009e00780068804000ac140700ac
:104ac8009e00780072804000a91407009414070023
:104ad800100020000080fa00000006000c00fa0018
:104ae800e60147008009780068004700010878005f
:104af8006a00470002487800660047001000780006
:104b08000000e00003003a006118200020ad2800f2
:104b180056110700660047009000780068004700bb
:104b2800100078000088b90000007800000f7800b5
:104b380068004700100078000000e0000d00320017
:104b48009e00780068004700100078000001780097
:104b5800110009008280d800e60047009100780023
:104b6800810f500003003200e118200020ad28001a
:104b78003e110700410220001e804000340f07004c
:104b8800800078000e80e800010878000e80e800b8
:104b9800100078000000e0001400320064004700b4
:104ba8008e80e80011087800640047001000780043
:104bb800410220008080400064004700010878001e
:104bc8000e80e800100278006a00470090417800e3
:104bd80064004700100178006800470090007800e2
:104be8006600470010007800040007000e80e80007
:104bf800100078000080fa00000006000a00fa00a1
:104c0800000f78000e80e800010878006400470073
:104c180002087800660047000348780068004700eb
:104c2800040878000e80e800100078000000e0001a
:104c380006003a00680047009000780068004700c6
:104c4800100078000108780005003700640047006c
:104c5800900078006800470010007800010878008c
:104c680068004700100078007e0040001e087800a9
:104c780068004700100078000002b0008e80e8004d
:104c88001108780011002000680047001000780023
:104c98003aff07000080fa00000006000200fa0050
:104ca800000f78001e0078000000e00010003200bd
:104cb8001e0078008000eb006400400001087800c6
:104cc8001e0078008000eb00010878001e007800c4
:104cd8008000eb0066004000010878008001eb00ce
:104ce8000001eb008000eb001e0078001a000700ae
:104cf8000080fa00000006000800fa00e6004700fd
:104d08008048780010002000000f78008000eb0039
:104d18000e80e8000108780066004700104178001e
:104d28000e80e800900078001e0078006bff0700f6
:104d3800800078006400470001087800640047009c
:104d480010007800d5ff07006400470010007800c5
:104d58000080fa00000006001200fa006a0247000c
:104d6800000a78006c004700010878006e004700d0
:104d78000208780070004700030878000000eb0084
:104d8800000f78000e80e800ea004700110878005c
:104d98000e80e800100078000000e00003003a00f0
:104da8009130200020ad2800b01007006c004700ab
:104db800100078000000e00009003a000e80e800ca
:104dc800100078000002b000100078000000e00039
:104dd80003003200a130200020ad2800a3100700f6
:104de8007000470010007800e20f50000b003a00f6
:104df8000e80e800100078007e0040001000780067
:104e0800e10f500005003200b130200020ad28002d
:104e1800961007000100370000000000b3130700d8
:104e28000e80e800100078007c00400090007800b8
:104e38000e80e800100078007e0040001000780026
:104e4800808f50000400390070004700100078007f
:104e5800e20f500024003a0070004700100178006b
:104e68006c004700900078000e80e8001000780081
:104e78007f0407008000780064004700010878007c
:104e88000e80e800100078007200400010007800e2
:104e98000000e0000a0032000e80e80010007800f0
:104ea80072004000cef707000000e0000b0032005f
:104eb8005850020000000000000000000700370002
:104ec80064004700100078000000e0000300320092
:104ed8005850020000000000000000009013070076
:104ee800100020004c0037006e00470010007800ca
:104ef8000000e00003003a00891307000000eb00ff
:104f0800450037001e0078000000e00004003a0069
:104f18006600470057f8070010002000000f7800cf
:104f28007f13070083f50700701307000e80e80061
:104f3800100078002002b00010407800e14f4000d7
:104f480005003a000e80e800100078008040eb0071
:104f58002002b000014878000e80e80010007800b8
:104f68003002b00010407800e14f400005003a00e0
:104f78000e80e800100078008040eb003002b0009e
:104f88000148780066130700ee00470066004700f6
:104f980043f807000000e0001a003a000e80e8001d
:104fa80010007800720507000000e00010003200d1
:104fb8006e004700900078000e80e800100078002e
:104fc800680040004df707000e80e80010007800e8
:104fd800f00407005df507000000e0008eff3a00ce
:104fe8005850020000000000000000008bff37004e
:104ff8000e80e80010007800e604070053f507006b
:1050080086ff37000e80e80010007800e1040700f2
:105018004ef507000000eb000080fa0000000600d3
:105028001200fa006a024700000a78006c00470084
:10503800010878006e0047000208780070004700f9
:10504800030878000e80e800ea004700110878009d
:105058000e80e800100078000000e00003003a002d
:10506800d13d200020ad2800001007006c0047004b
:10507800100078000000e00009003a000e80e80007
:10508800100078000002b000100078000000e00076
:1050980003003200e13d200020ad2800f30f070097
:1050a8007000470010007800e20f500009003a0035
:1050b8000e80e800100078007e00400010007800a4
:1050c800e10f500003003200f13d200020ad280020
:1050d800e60f07008000eb00640047000108780035
:1050e8000e80e800100078007c00400090007800f6
:1050f8000e80e800100078007e0040001000780064
:10510800808f5000040039007000470010007800bc
:10511800e20f50003d003a000e80e8009000780051
:10512800660047003102b000114878000e80e800a0
:105138009000780068004700fc8040001108780063
:1051480070004700100178006c004700900078005c
:105158000e80e80010007800c503070066004700cd
:1051680010407800e14f400015003a000e80e8003a
:105178001000780072004000100078000000e00085
:105188001f0032000e80e800100078007200400016
:1051980013f707000000e000190032006e00470016
:1051a800100078000000e000150032006e00470093
:1051b8001000780011002000010878001000370066
:1051c8006600470090407800f0c7b30080cf5000d9
:1051d80003003a008146200020ad2800a30f0700f5
:1051e80066004700104078000040e80080407800e2
:1051f8000e80e800100078003002b0000148780006
:1052080010002000000f7800020037000000eb00bb
:10521800000f78001e0078000080fa0000000600e9
:105228000e00fa006a014700000978006c00470088
:10523800010878000e80e800ea00470011087800ad
:105248000e80e800100078000000e00003003a003b
:105258008148200020ad2800840f07000e80e80058
:10526800100078000002b000100078000000e00094
:1052780003003200c148200020ad28007b0f070042
:105288000e80e80010007800100078000000e000b0
:1052980009003a000e80e800100078006400400021
:1052a800100078000000e0000300320011492000df
:1052b80020ad28006d0f07008000eb006400470058
:1052c800010878000e80e80090007800660047002a
:1052d800fc804000110878000e80e800100078007b
:1052e8007e004000900078006600470010007800bb
:1052f800808f5000380036000e80e800900078005b
:10530800680047003102b000114878006600470085
:10531800100078008000e8000e80e8001000780097
:105328007c004000010878006800470010407800c1
:10533800e14f400015003a000e80e80010007800a8
:1053480072004000100078000000e0001f003200ea
:105358000e80e8001000780072004000a0f60700f8
:105368000000e000190032006c00470010007800cf
:105378000000e000150032006c00470010007800c3
:10538800110020000108780010003700680047006d
:1053980090407800f0c7b30080cf500003003a0077
:1053a8000151200020ad2800300f07006800470099
:1053b800104078000040e800804078000e80e80047
:1053c800100078003002b00001487800100020007a
:1053d800000f7800020037000000eb00000f780093
:1053e8001e0078000080fa00000006001000fa0095
:1053f800ea014700800978006c004700010878003e
:105408006e004700020878000000eb00000f7800eb
:105418000e80e800ea004700110878000e80e800d6
:10542800100078000000e00003003a00c15220009c
:1054380020ad28000d0f07006c0047001000780011
:105448000000e0000d003a000e80e800100078002f
:105458000002b000100078000000e00007003200f1
:105468000153200020ad2800000f0700030037007b
:105478000000000001003700000000001b120700b8
:105488000e80e8009000780064004700fc8040002f
:105498001108780064004700100078000000e00060
:1054a8001e0032006c004700900078000e80e80073
:1054b800100078008a030700640047001000780095
:1054c8008000e9000e80e800100078007c004000b1
:1054d800010878000e80e80010007800680040009d
:1054e800100078000000e000090032000e80e8009b
:1054f800100078006800400039f607000000e0005e
:1055080003003200585002000000000000000000b4
:105518000312070010002000510037006e004700fa
:10552800100078000000e00003003a00fc110700ba
:105538000000eb004a0037001e0078000000e00081
:1055480004003a0066004700caf607001000200071
:10555800000f7800f2110700f6f30700e3110700c7
:105568000e80e800100078002002b000104078009b
:10557800e14f400005003a000e80e8001000780076
:105588008040eb002002b000014878000e80e8005f
:10559800100078003002b00010407800e14f400061
:1055a80005003a000e80e800100078008040eb000b
:1055b8003002b00001487800d9110700ee0047001a
:1055c80066004700b6f607000000e0001a003a003f
:1055d8000e80e80010007800b70307000000e00024
:1055e800100032006e004700900078000e80e8003e
:1055f8001000780072004000c0f507000e80e80037
:105608001000780063030700d0f307000000e000f3
:1056180097ff3a0058500200000000000000000008
:1056280096ff37000e80e800100078005903070045
:10563800c6f3070091ff37000e80e80010007800dd
